{
  "contractName": "DAO",
  "abi": [
    {
      "inputs": [
        {
          "internalType": "uint256",
          "name": "_voteTime",
          "type": "uint256"
        },
        {
          "internalType": "uint256",
          "name": "_quorum",
          "type": "uint256"
        }
      ],
      "stateMutability": "nonpayable",
      "type": "constructor"
    },
    {
      "anonymous": false,
      "inputs": [
        {
          "indexed": false,
          "internalType": "uint256",
          "name": "id",
          "type": "uint256"
        },
        {
          "indexed": false,
          "internalType": "enum DAO.Status",
          "name": "status",
          "type": "uint8"
        }
      ],
      "name": "ExecuteProposal",
      "type": "event"
    },
    {
      "anonymous": false,
      "inputs": [
        {
          "indexed": false,
          "internalType": "uint256",
          "name": "availableFunds",
          "type": "uint256"
        }
      ],
      "name": "Funds",
      "type": "event"
    },
    {
      "anonymous": false,
      "inputs": [
        {
          "indexed": false,
          "internalType": "uint256",
          "name": "id",
          "type": "uint256"
        },
        {
          "indexed": false,
          "internalType": "string",
          "name": "name",
          "type": "string"
        },
        {
          "indexed": false,
          "internalType": "uint256",
          "name": "amount",
          "type": "uint256"
        },
        {
          "indexed": false,
          "internalType": "address payable",
          "name": "recipient",
          "type": "address"
        },
        {
          "indexed": false,
          "internalType": "uint256",
          "name": "votes",
          "type": "uint256"
        },
        {
          "indexed": false,
          "internalType": "uint256",
          "name": "end",
          "type": "uint256"
        },
        {
          "indexed": false,
          "internalType": "enum DAO.Status",
          "name": "status",
          "type": "uint8"
        }
      ],
      "name": "NewProposal",
      "type": "event"
    },
    {
      "anonymous": false,
      "inputs": [
        {
          "indexed": false,
          "internalType": "uint256",
          "name": "shares",
          "type": "uint256"
        },
        {
          "indexed": false,
          "internalType": "uint256",
          "name": "totalShares",
          "type": "uint256"
        }
      ],
      "name": "Shares",
      "type": "event"
    },
    {
      "anonymous": false,
      "inputs": [
        {
          "indexed": false,
          "internalType": "uint256",
          "name": "id",
          "type": "uint256"
        },
        {
          "indexed": false,
          "internalType": "uint256",
          "name": "votes",
          "type": "uint256"
        }
      ],
      "name": "Votes",
      "type": "event"
    },
    {
      "inputs": [],
      "name": "admin",
      "outputs": [
        {
          "internalType": "address",
          "name": "",
          "type": "address"
        }
      ],
      "stateMutability": "view",
      "type": "function",
      "constant": true
    },
    {
      "inputs": [],
      "name": "availableFunds",
      "outputs": [
        {
          "internalType": "uint256",
          "name": "",
          "type": "uint256"
        }
      ],
      "stateMutability": "view",
      "type": "function",
      "constant": true
    },
    {
      "inputs": [
        {
          "internalType": "address",
          "name": "",
          "type": "address"
        }
      ],
      "name": "investors",
      "outputs": [
        {
          "internalType": "bool",
          "name": "",
          "type": "bool"
        }
      ],
      "stateMutability": "view",
      "type": "function",
      "constant": true
    },
    {
      "inputs": [],
      "name": "nextProposalId",
      "outputs": [
        {
          "internalType": "uint256",
          "name": "",
          "type": "uint256"
        }
      ],
      "stateMutability": "view",
      "type": "function",
      "constant": true
    },
    {
      "inputs": [
        {
          "internalType": "uint256",
          "name": "",
          "type": "uint256"
        }
      ],
      "name": "proposals",
      "outputs": [
        {
          "internalType": "uint256",
          "name": "id",
          "type": "uint256"
        },
        {
          "internalType": "string",
          "name": "name",
          "type": "string"
        },
        {
          "internalType": "uint256",
          "name": "amount",
          "type": "uint256"
        },
        {
          "internalType": "address payable",
          "name": "recipient",
          "type": "address"
        },
        {
          "internalType": "uint256",
          "name": "votes",
          "type": "uint256"
        },
        {
          "internalType": "uint256",
          "name": "end",
          "type": "uint256"
        },
        {
          "internalType": "enum DAO.Status",
          "name": "status",
          "type": "uint8"
        }
      ],
      "stateMutability": "view",
      "type": "function",
      "constant": true
    },
    {
      "inputs": [],
      "name": "quorum",
      "outputs": [
        {
          "internalType": "uint256",
          "name": "",
          "type": "uint256"
        }
      ],
      "stateMutability": "view",
      "type": "function",
      "constant": true
    },
    {
      "inputs": [
        {
          "internalType": "address",
          "name": "",
          "type": "address"
        }
      ],
      "name": "shares",
      "outputs": [
        {
          "internalType": "uint256",
          "name": "",
          "type": "uint256"
        }
      ],
      "stateMutability": "view",
      "type": "function",
      "constant": true
    },
    {
      "inputs": [],
      "name": "totalShares",
      "outputs": [
        {
          "internalType": "uint256",
          "name": "",
          "type": "uint256"
        }
      ],
      "stateMutability": "view",
      "type": "function",
      "constant": true
    },
    {
      "inputs": [],
      "name": "voteTime",
      "outputs": [
        {
          "internalType": "uint256",
          "name": "",
          "type": "uint256"
        }
      ],
      "stateMutability": "view",
      "type": "function",
      "constant": true
    },
    {
      "inputs": [
        {
          "internalType": "address",
          "name": "",
          "type": "address"
        },
        {
          "internalType": "uint256",
          "name": "",
          "type": "uint256"
        }
      ],
      "name": "votes",
      "outputs": [
        {
          "internalType": "bool",
          "name": "",
          "type": "bool"
        }
      ],
      "stateMutability": "view",
      "type": "function",
      "constant": true
    },
    {
      "stateMutability": "payable",
      "type": "receive",
      "payable": true
    },
    {
      "inputs": [],
      "name": "contribute",
      "outputs": [],
      "stateMutability": "payable",
      "type": "function",
      "payable": true
    },
    {
      "inputs": [
        {
          "internalType": "uint256",
          "name": "amount",
          "type": "uint256"
        }
      ],
      "name": "redeemShare",
      "outputs": [],
      "stateMutability": "nonpayable",
      "type": "function"
    },
    {
      "inputs": [
        {
          "internalType": "uint256",
          "name": "amount",
          "type": "uint256"
        },
        {
          "internalType": "address",
          "name": "to",
          "type": "address"
        }
      ],
      "name": "transferShare",
      "outputs": [],
      "stateMutability": "nonpayable",
      "type": "function"
    },
    {
      "inputs": [
        {
          "internalType": "string",
          "name": "name",
          "type": "string"
        },
        {
          "internalType": "uint256",
          "name": "amount",
          "type": "uint256"
        },
        {
          "internalType": "address payable",
          "name": "recipient",
          "type": "address"
        }
      ],
      "name": "createProposal",
      "outputs": [],
      "stateMutability": "nonpayable",
      "type": "function"
    },
    {
      "inputs": [
        {
          "internalType": "uint256",
          "name": "proposalId",
          "type": "uint256"
        }
      ],
      "name": "vote",
      "outputs": [],
      "stateMutability": "nonpayable",
      "type": "function"
    },
    {
      "inputs": [
        {
          "internalType": "uint256",
          "name": "proposalId",
          "type": "uint256"
        }
      ],
      "name": "executeProposal",
      "outputs": [],
      "stateMutability": "nonpayable",
      "type": "function"
    },
    {
      "inputs": [
        {
          "internalType": "uint256",
          "name": "amount",
          "type": "uint256"
        },
        {
          "internalType": "address payable",
          "name": "to",
          "type": "address"
        }
      ],
      "name": "withdrawEther",
      "outputs": [],
      "stateMutability": "nonpayable",
      "type": "function"
    },
    {
      "inputs": [
        {
          "internalType": "address payable",
          "name": "_admin",
          "type": "address"
        }
      ],
      "name": "setAdmin",
      "outputs": [],
      "stateMutability": "nonpayable",
      "type": "function"
    }
  ],
  "bytecode": "0x60806040523480156200001157600080fd5b506040516200277738038062002777833981810160405281019062000037919062000121565b600081118015620000485750606481105b6200008a576040517f08c379a00000000000000000000000000000000000000000000000000000000081526004016200008190620001c9565b60405180910390fd5b816007819055508060088190555033600960006101000a81548173ffffffffffffffffffffffffffffffffffffffff021916908373ffffffffffffffffffffffffffffffffffffffff1602179055505050620001eb565b600080fd5b6000819050919050565b620000fb81620000e6565b81146200010757600080fd5b50565b6000815190506200011b81620000f0565b92915050565b600080604083850312156200013b576200013a620000e1565b5b60006200014b858286016200010a565b92505060206200015e858286016200010a565b9150509250929050565b600082825260208201905092915050565b7f71756f72756d206d757374206265206265747765656e203020616e6420313030600082015250565b6000620001b160208362000168565b9150620001be8262000179565b602082019050919050565b60006020820190508181036000830152620001e481620001a2565b9050919050565b61257c80620001fb6000396000f3fe60806040526004361061010d5760003560e01c80636f7bc9be11610095578063bcf93dd611610064578063bcf93dd6146103ca578063ce56c454146103f5578063ce7c2ac21461041e578063d7bb99ba1461045b578063f851a4401461046557610166565b80636f7bc9be146102fe578063704b6c021461033b578063868643df146103645780639f2524ee1461038d57610166565b80631703a018116100dc5780631703a018146102295780632ab09d14146102545780633a98ef391461027f57806346fcff4c146102aa5780636ac1e01f146102d557610166565b80630121b93f1461016b578063013cf08b14610194578063039383e6146101d75780630d61b5191461020057610166565b36610166573460056000828254610124919061163e565b925050819055507feee9b99e43cf47c0b059200515960a56b3ffc23ae0e8ecaf9f530832d310132b60055460405161015c9190611681565b60405180910390a1005b600080fd5b34801561017757600080fd5b50610192600480360381019061018d91906116dc565b610490565b005b3480156101a057600080fd5b506101bb60048036038101906101b691906116dc565b610727565b6040516101ce9796959493929190611851565b60405180910390f35b3480156101e357600080fd5b506101fe60048036038101906101f99190611905565b61081e565b005b34801561020c57600080fd5b50610227600480360381019061022291906116dc565b610a21565b005b34801561023557600080fd5b5061023e610c53565b60405161024b9190611681565b60405180910390f35b34801561026057600080fd5b50610269610c59565b6040516102769190611681565b60405180910390f35b34801561028b57600080fd5b50610294610c5f565b6040516102a19190611681565b60405180910390f35b3480156102b657600080fd5b506102bf610c65565b6040516102cc9190611681565b60405180910390f35b3480156102e157600080fd5b506102fc60048036038101906102f79190611aa6565b610c6b565b005b34801561030a57600080fd5b5061032560048036038101906103209190611b15565b610f3e565b6040516103329190611b5d565b60405180910390f35b34801561034757600080fd5b50610362600480360381019061035d9190611b78565b610f5e565b005b34801561037057600080fd5b5061038b600480360381019061038691906116dc565b611032565b005b34801561039957600080fd5b506103b460048036038101906103af9190611ba5565b61127e565b6040516103c19190611b5d565b60405180910390f35b3480156103d657600080fd5b506103df6112ad565b6040516103ec9190611681565b60405180910390f35b34801561040157600080fd5b5061041c60048036038101906104179190611be5565b6112b3565b005b34801561042a57600080fd5b5061044560048036038101906104409190611b15565b6113e8565b6040516104529190611681565b60405180910390f35b610463611400565b005b34801561047157600080fd5b5061047a611594565b6040516104879190611c34565b60405180910390f35b600115156000803373ffffffffffffffffffffffffffffffffffffffff1673ffffffffffffffffffffffffffffffffffffffff16815260200190815260200160002060009054906101000a900460ff16151514610522576040517f08c379a000000000000000000000000000000000000000000000000000000000815260040161051990611c9b565b60405180910390fd5b600060036000838152602001908152602001600020905060001515600260003373ffffffffffffffffffffffffffffffffffffffff1673ffffffffffffffffffffffffffffffffffffffff168152602001908152602001600020600084815260200190815260200160002060009054906101000a900460ff161515146105dd576040517f08c379a00000000000000000000000000000000000000000000000000000000081526004016105d490611d2d565b60405180910390fd5b80600501544210610623576040517f08c379a000000000000000000000000000000000000000000000000000000000815260040161061a90611dbf565b60405180910390fd5b6001600260003373ffffffffffffffffffffffffffffffffffffffff1673ffffffffffffffffffffffffffffffffffffffff168152602001908152602001600020600084815260200190815260200160002060006101000a81548160ff021916908315150217905550600160003373ffffffffffffffffffffffffffffffffffffffff1673ffffffffffffffffffffffffffffffffffffffff168152602001908152602001600020548160040160008282546106df919061163e565b925050819055507ff81dd71faa7778033afde6ade3845126bd24a1ce19e005f8fc950e9f3c378c0682826004015460405161071b929190611ddf565b60405180910390a15050565b600360205280600052604060002060009150905080600001549080600101805461075090611e37565b80601f016020809104026020016040519081016040528092919081815260200182805461077c90611e37565b80156107c95780601f1061079e576101008083540402835291602001916107c9565b820191906000526020600020905b8154815290600101906020018083116107ac57829003601f168201915b5050505050908060020154908060030160009054906101000a900473ffffffffffffffffffffffffffffffffffffffff16908060040154908060050154908060060160009054906101000a900460ff16905087565b81600160003373ffffffffffffffffffffffffffffffffffffffff1673ffffffffffffffffffffffffffffffffffffffff1681526020019081526020016000205410156108a0576040517f08c379a000000000000000000000000000000000000000000000000000000000815260040161089790611eb4565b60405180910390fd5b81600160003373ffffffffffffffffffffffffffffffffffffffff1673ffffffffffffffffffffffffffffffffffffffff16815260200190815260200160002060008282546108ef9190611ed4565b9250508190555081600160008373ffffffffffffffffffffffffffffffffffffffff1673ffffffffffffffffffffffffffffffffffffffff1681526020019081526020016000206000828254610945919061163e565b9250508190555060016000808373ffffffffffffffffffffffffffffffffffffffff1673ffffffffffffffffffffffffffffffffffffffff16815260200190815260200160002060006101000a81548160ff0219169083151502179055507f2efce8af138da85692f6f2adbdfd92f03f9c435e498715b020a2cddd96949bfe600160003373ffffffffffffffffffffffffffffffffffffffff1673ffffffffffffffffffffffffffffffffffffffff16815260200190815260200160002054600454604051610a15929190611ddf565b60405180910390a15050565b60006003600083815260200190815260200160002090508060050154421015610a7f576040517f08c379a0000000000000000000000000000000000000000000000000000000008152600401610a7690611f7a565b60405180910390fd5b60006002811115610a9357610a926117da565b5b8160060160009054906101000a900460ff166002811115610ab757610ab66117da565b5b14610af7576040517f08c379a0000000000000000000000000000000000000000000000000000000008152600401610aee9061200c565b60405180910390fd5b60085460045460648360040154610b0e919061202c565b610b18919061209d565b10610b8157610b4f81600201548260030160009054906101000a900473ffffffffffffffffffffffffffffffffffffffff166115ba565b60018160060160006101000a81548160ff02191690836002811115610b7757610b766117da565b5b0217905550610bcc565b806002015460056000828254610b97919061163e565b9250508190555060028160060160006101000a81548160ff02191690836002811115610bc657610bc56117da565b5b02179055505b7feee9b99e43cf47c0b059200515960a56b3ffc23ae0e8ecaf9f530832d310132b600554604051610bfd9190611681565b60405180910390a17f14c6bf7cb2a79e7fe2b4bd97f91e7b6c9770af496299f3d906e64ac3e732a16c828260060160009054906101000a900460ff16604051610c479291906120ce565b60405180910390a15050565b60085481565b60065481565b60045481565b60055481565b600115156000803373ffffffffffffffffffffffffffffffffffffffff1673ffffffffffffffffffffffffffffffffffffffff16815260200190815260200160002060009054906101000a900460ff16151514610cfd576040517f08c379a0000000000000000000000000000000000000000000000000000000008152600401610cf490611c9b565b60405180910390fd5b816005541015610d42576040517f08c379a0000000000000000000000000000000000000000000000000000000008152600401610d3990612143565b60405180910390fd5b6040518060e0016040528060065481526020018481526020018381526020018273ffffffffffffffffffffffffffffffffffffffff1681526020016000815260200160075442610d92919061163e565b815260200160006002811115610dab57610daa6117da565b5b815250600360006006548152602001908152602001600020600082015181600001556020820151816001019081610de2919061230f565b506040820151816002015560608201518160030160006101000a81548173ffffffffffffffffffffffffffffffffffffffff021916908373ffffffffffffffffffffffffffffffffffffffff1602179055506080820151816004015560a0820151816005015560c08201518160060160006101000a81548160ff02191690836002811115610e7357610e726117da565b5b02179055509050508160056000828254610e8d9190611ed4565b925050819055507feee9b99e43cf47c0b059200515960a56b3ffc23ae0e8ecaf9f530832d310132b600554604051610ec59190611681565b60405180910390a17fbb67993411979c0db3f7869dcb8786e7918eea068c24a42e4180f405902a502e600654848484600060075442610f04919061163e565b6000604051610f19979695949392919061241c565b60405180910390a160066000815480929190610f3490612492565b9190505550505050565b60006020528060005260406000206000915054906101000a900460ff1681565b600960009054906101000a900473ffffffffffffffffffffffffffffffffffffffff1673ffffffffffffffffffffffffffffffffffffffff163373ffffffffffffffffffffffffffffffffffffffff1614610fee576040517f08c379a0000000000000000000000000000000000000000000000000000000008152600401610fe590612526565b60405180910390fd5b80600960006101000a81548173ffffffffffffffffffffffffffffffffffffffff021916908373ffffffffffffffffffffffffffffffffffffffff16021790555050565b80600160003373ffffffffffffffffffffffffffffffffffffffff1673ffffffffffffffffffffffffffffffffffffffff1681526020019081526020016000205410156110b4576040517f08c379a00000000000000000000000000000000000000000000000000000000081526004016110ab90611eb4565b60405180910390fd5b8060055410156110f9576040517f08c379a00000000000000000000000000000000000000000000000000000000081526004016110f090612143565b60405180910390fd5b80600160003373ffffffffffffffffffffffffffffffffffffffff1673ffffffffffffffffffffffffffffffffffffffff16815260200190815260200160002060008282546111489190611ed4565b9250508190555080600460008282546111619190611ed4565b92505081905550806005600082825461117a9190611ed4565b925050819055503373ffffffffffffffffffffffffffffffffffffffff166108fc829081150290604051600060405180830381858888f193505050501580156111c7573d6000803e3d6000fd5b507f2efce8af138da85692f6f2adbdfd92f03f9c435e498715b020a2cddd96949bfe600160003373ffffffffffffffffffffffffffffffffffffffff1673ffffffffffffffffffffffffffffffffffffffff1681526020019081526020016000205460045460405161123a929190611ddf565b60405180910390a17feee9b99e43cf47c0b059200515960a56b3ffc23ae0e8ecaf9f530832d310132b6005546040516112739190611681565b60405180910390a150565b60026020528160005260406000206020528060005260406000206000915091509054906101000a900460ff1681565b60075481565b600960009054906101000a900473ffffffffffffffffffffffffffffffffffffffff1673ffffffffffffffffffffffffffffffffffffffff163373ffffffffffffffffffffffffffffffffffffffff1614611343576040517f08c379a000000000000000000000000000000000000000000000000000000000815260040161133a90612526565b60405180910390fd5b816005541015611388576040517f08c379a000000000000000000000000000000000000000000000000000000000815260040161137f90612143565b60405180910390fd5b816005600082825461139a9190611ed4565b925050819055506113ab82826115ba565b7feee9b99e43cf47c0b059200515960a56b3ffc23ae0e8ecaf9f530832d310132b6005546040516113dc9190611681565b60405180910390a15050565b60016020528060005260406000206000915090505481565b60016000803373ffffffffffffffffffffffffffffffffffffffff1673ffffffffffffffffffffffffffffffffffffffff16815260200190815260200160002060006101000a81548160ff02191690831515021790555034600160003373ffffffffffffffffffffffffffffffffffffffff1673ffffffffffffffffffffffffffffffffffffffff16815260200190815260200160002060008282546114a6919061163e565b9250508190555034600460008282546114bf919061163e565b9250508190555034600560008282546114d8919061163e565b925050819055507f2efce8af138da85692f6f2adbdfd92f03f9c435e498715b020a2cddd96949bfe600160003373ffffffffffffffffffffffffffffffffffffffff1673ffffffffffffffffffffffffffffffffffffffff16815260200190815260200160002054600454604051611551929190611ddf565b60405180910390a17feee9b99e43cf47c0b059200515960a56b3ffc23ae0e8ecaf9f530832d310132b60055460405161158a9190611681565b60405180910390a1565b600960009054906101000a900473ffffffffffffffffffffffffffffffffffffffff1681565b8073ffffffffffffffffffffffffffffffffffffffff166108fc839081150290604051600060405180830381858888f19350505050158015611600573d6000803e3d6000fd5b505050565b6000819050919050565b7f4e487b7100000000000000000000000000000000000000000000000000000000600052601160045260246000fd5b600061164982611605565b915061165483611605565b925082820190508082111561166c5761166b61160f565b5b92915050565b61167b81611605565b82525050565b60006020820190506116966000830184611672565b92915050565b6000604051905090565b600080fd5b600080fd5b6116b981611605565b81146116c457600080fd5b50565b6000813590506116d6816116b0565b92915050565b6000602082840312156116f2576116f16116a6565b5b6000611700848285016116c7565b91505092915050565b600081519050919050565b600082825260208201905092915050565b60005b83811015611743578082015181840152602081019050611728565b60008484015250505050565b6000601f19601f8301169050919050565b600061176b82611709565b6117758185611714565b9350611785818560208601611725565b61178e8161174f565b840191505092915050565b600073ffffffffffffffffffffffffffffffffffffffff82169050919050565b60006117c482611799565b9050919050565b6117d4816117b9565b82525050565b7f4e487b7100000000000000000000000000000000000000000000000000000000600052602160045260246000fd5b6003811061181a576118196117da565b5b50565b600081905061182b82611809565b919050565b600061183b8261181d565b9050919050565b61184b81611830565b82525050565b600060e082019050611866600083018a611672565b81810360208301526118788189611760565b90506118876040830188611672565b61189460608301876117cb565b6118a16080830186611672565b6118ae60a0830185611672565b6118bb60c0830184611842565b98975050505050505050565b60006118d282611799565b9050919050565b6118e2816118c7565b81146118ed57600080fd5b50565b6000813590506118ff816118d9565b92915050565b6000806040838503121561191c5761191b6116a6565b5b600061192a858286016116c7565b925050602061193b858286016118f0565b9150509250929050565b600080fd5b600080fd5b7f4e487b7100000000000000000000000000000000000000000000000000000000600052604160045260246000fd5b6119878261174f565b810181811067ffffffffffffffff821117156119a6576119a561194f565b5b80604052505050565b60006119b961169c565b90506119c5828261197e565b919050565b600067ffffffffffffffff8211156119e5576119e461194f565b5b6119ee8261174f565b9050602081019050919050565b82818337600083830152505050565b6000611a1d611a18846119ca565b6119af565b905082815260208101848484011115611a3957611a3861194a565b5b611a448482856119fb565b509392505050565b600082601f830112611a6157611a60611945565b5b8135611a71848260208601611a0a565b91505092915050565b611a83816117b9565b8114611a8e57600080fd5b50565b600081359050611aa081611a7a565b92915050565b600080600060608486031215611abf57611abe6116a6565b5b600084013567ffffffffffffffff811115611add57611adc6116ab565b5b611ae986828701611a4c565b9350506020611afa868287016116c7565b9250506040611b0b86828701611a91565b9150509250925092565b600060208284031215611b2b57611b2a6116a6565b5b6000611b39848285016118f0565b91505092915050565b60008115159050919050565b611b5781611b42565b82525050565b6000602082019050611b726000830184611b4e565b92915050565b600060208284031215611b8e57611b8d6116a6565b5b6000611b9c84828501611a91565b91505092915050565b60008060408385031215611bbc57611bbb6116a6565b5b6000611bca858286016118f0565b9250506020611bdb858286016116c7565b9150509250929050565b60008060408385031215611bfc57611bfb6116a6565b5b6000611c0a858286016116c7565b9250506020611c1b85828601611a91565b9150509250929050565b611c2e816118c7565b82525050565b6000602082019050611c496000830184611c25565b92915050565b7f6f6e6c7920696e766573746f7273000000000000000000000000000000000000600082015250565b6000611c85600e83611714565b9150611c9082611c4f565b602082019050919050565b60006020820190508181036000830152611cb481611c78565b9050919050565b7f696e766573746f722063616e206f6e6c7920766f7465206f6e6365207065722060008201527f70726f706f73616c000000000000000000000000000000000000000000000000602082015250565b6000611d17602883611714565b9150611d2282611cbb565b604082019050919050565b60006020820190508181036000830152611d4681611d0a565b9050919050565b7f63616e206f6e6c7920766f746520756e74696c2070726f706f73616c20656e6460008201527f2064617465000000000000000000000000000000000000000000000000000000602082015250565b6000611da9602583611714565b9150611db482611d4d565b604082019050919050565b60006020820190508181036000830152611dd881611d9c565b9050919050565b6000604082019050611df46000830185611672565b611e016020830184611672565b9392505050565b7f4e487b7100000000000000000000000000000000000000000000000000000000600052602260045260246000fd5b60006002820490506001821680611e4f57607f821691505b602082108103611e6257611e61611e08565b5b50919050565b7f6e6f7420656e6f75676820736861726573000000000000000000000000000000600082015250565b6000611e9e601183611714565b9150611ea982611e68565b602082019050919050565b60006020820190508181036000830152611ecd81611e91565b9050919050565b6000611edf82611605565b9150611eea83611605565b9250828203905081811115611f0257611f0161160f565b5b92915050565b7f74686520766f74696e6720706572696f64206973207374696c6c206e6f74206f60008201527f7665720000000000000000000000000000000000000000000000000000000000602082015250565b6000611f64602383611714565b9150611f6f82611f08565b604082019050919050565b60006020820190508181036000830152611f9381611f57565b9050919050565b7f63616e6e6f7420657865637574652070726f706f73616c20616c72656164792060008201527f6578656375746564000000000000000000000000000000000000000000000000602082015250565b6000611ff6602883611714565b915061200182611f9a565b604082019050919050565b6000602082019050818103600083015261202581611fe9565b9050919050565b600061203782611605565b915061204283611605565b925082820261205081611605565b915082820484148315176120675761206661160f565b5b5092915050565b7f4e487b7100000000000000000000000000000000000000000000000000000000600052601260045260246000fd5b60006120a882611605565b91506120b383611605565b9250826120c3576120c261206e565b5b828204905092915050565b60006040820190506120e36000830185611672565b6120f06020830184611842565b9392505050565b7f6e6f7420656e6f75676820617661696c61626c652066756e6473000000000000600082015250565b600061212d601a83611714565b9150612138826120f7565b602082019050919050565b6000602082019050818103600083015261215c81612120565b9050919050565b60008190508160005260206000209050919050565b60006020601f8301049050919050565b600082821b905092915050565b6000600883026121c57fffffffffffffffffffffffffffffffffffffffffffffffffffffffffffffffff82612188565b6121cf8683612188565b95508019841693508086168417925050509392505050565b6000819050919050565b600061220c61220761220284611605565b6121e7565b611605565b9050919050565b6000819050919050565b612226836121f1565b61223a61223282612213565b848454612195565b825550505050565b600090565b61224f612242565b61225a81848461221d565b505050565b5b8181101561227e57612273600082612247565b600181019050612260565b5050565b601f8211156122c35761229481612163565b61229d84612178565b810160208510156122ac578190505b6122c06122b885612178565b83018261225f565b50505b505050565b600082821c905092915050565b60006122e6600019846008026122c8565b1980831691505092915050565b60006122ff83836122d5565b9150826002028217905092915050565b61231882611709565b67ffffffffffffffff8111156123315761233061194f565b5b61233b8254611e37565b612346828285612282565b600060209050601f8311600181146123795760008415612367578287015190505b61237185826122f3565b8655506123d9565b601f19841661238786612163565b60005b828110156123af5784890151825560018201915060208501945060208101905061238a565b868310156123cc57848901516123c8601f8916826122d5565b8355505b6001600288020188555050505b505050505050565b6000819050919050565b60006124066124016123fc846123e1565b6121e7565b611605565b9050919050565b612416816123eb565b82525050565b600060e082019050612431600083018a611672565b81810360208301526124438189611760565b90506124526040830188611672565b61245f60608301876117cb565b61246c608083018661240d565b61247960a0830185611672565b61248660c0830184611842565b98975050505050505050565b600061249d82611605565b91507fffffffffffffffffffffffffffffffffffffffffffffffffffffffffffffffff82036124cf576124ce61160f565b5b600182019050919050565b7f6f6e6c792061646d696e00000000000000000000000000000000000000000000600082015250565b6000612510600a83611714565b915061251b826124da565b602082019050919050565b6000602082019050818103600083015261253f81612503565b905091905056fea2646970667358221220d82a6fb08302428b3c5da7f55604c143cbdf435fe77cfb3f87f07df49ba8077c64736f6c63430008110033",
  "immutableReferences": {},
  "source": "// SPDX-License-Identifier: MIT\r\npragma solidity ^0.8.0;\r\n\r\ncontract DAO {  \r\n  enum Status { ongoing, executed, rejected }\r\n  \r\n  struct Proposal {\r\n    uint id;\r\n    string name;\r\n    uint amount;\r\n    address payable recipient;\r\n    uint votes;\r\n    uint end;\r\n    Status status;\r\n  }\r\n\r\n  mapping(address => bool) public investors;\r\n  mapping(address => uint) public shares;\r\n  mapping(address => mapping(uint => bool)) public votes;\r\n  mapping(uint => Proposal) public proposals;\r\n  uint public totalShares;\r\n  uint public availableFunds;\r\n  uint public nextProposalId;\r\n  uint public voteTime;\r\n  uint public quorum;\r\n  address public admin;\r\n\r\n  event Shares(uint shares, uint totalShares);\r\n  event Funds(uint availableFunds);\r\n  event Votes(uint id, uint votes);\r\n  event ExecuteProposal(uint id, Status status);\r\n  event NewProposal(\r\n    uint id,\r\n    string name,\r\n    uint amount,\r\n    address payable recipient,\r\n    uint votes,\r\n    uint end,\r\n    Status status\r\n  );\r\n\r\n  constructor(uint _voteTime, uint _quorum) {\r\n    require(_quorum > 0 && _quorum < 100, 'quorum must be between 0 and 100');\r\n    voteTime = _voteTime;\r\n    quorum = _quorum;\r\n    admin = msg.sender;\r\n  }  \r\n\r\n  function contribute() payable external {\r\n    investors[msg.sender] = true;\r\n    shares[msg.sender] += msg.value;\r\n    totalShares += msg.value;\r\n    availableFunds += msg.value;\r\n    emit Shares(shares[msg.sender], totalShares);\r\n    emit Funds(availableFunds);\r\n  }\r\n\r\n  function redeemShare(uint amount) external {\r\n    require(shares[msg.sender] >= amount, 'not enough shares');\r\n    require(availableFunds >= amount, 'not enough available funds');\r\n    shares[msg.sender] -= amount;\r\n    totalShares -= amount;\r\n    availableFunds -= amount;\r\n    payable(msg.sender).transfer(amount);\r\n    emit Shares(shares[msg.sender], totalShares);\r\n    emit Funds(availableFunds);\r\n  }\r\n\r\n  function transferShare(uint amount, address to) external {\r\n    require(shares[msg.sender] >= amount, 'not enough shares');\r\n    shares[msg.sender] -= amount;\r\n    shares[to] += amount;\r\n    investors[to] = true;\r\n    emit Shares(shares[msg.sender], totalShares);\r\n  }\r\n\r\n  function createProposal(string memory name, uint amount, address payable recipient) public onlyInvestors {\r\n    require(availableFunds >= amount, 'not enough available funds');\r\n    proposals[nextProposalId] = Proposal(\r\n      nextProposalId,\r\n      name,\r\n      amount,\r\n      recipient,\r\n      0,\r\n      block.timestamp + voteTime,\r\n      Status.ongoing\r\n    );    \r\n    availableFunds -= amount;\r\n    emit Funds(availableFunds);\r\n    emit NewProposal(nextProposalId, name, amount, recipient, 0, block.timestamp + voteTime, Status.ongoing);\r\n    nextProposalId ++;\r\n  }\r\n\r\n  function vote(uint proposalId) external onlyInvestors {\r\n    Proposal storage proposal = proposals[proposalId];\r\n    require(votes[msg.sender][proposalId] == false, 'investor can only vote once per proposal');\r\n    require(block.timestamp < proposal.end, 'can only vote until proposal end date');\r\n    votes[msg.sender][proposalId] = true;\r\n    proposal.votes += shares[msg.sender];\r\n    emit Votes(proposalId, proposal.votes);\r\n  }\r\n\r\n  function executeProposal(uint proposalId) external {\r\n    Proposal storage proposal = proposals[proposalId];\r\n    require(block.timestamp >= proposal.end, 'the voting period is still not over');\r\n    require(proposal.status == Status.ongoing, 'cannot execute proposal already executed');\r\n    if((proposal.votes * 100 / totalShares) >= quorum) {\r\n      _transferEther(proposal.amount, proposal.recipient);\r\n      proposal.status = Status.executed;\r\n    } else {\r\n      availableFunds += proposal.amount;\r\n      proposal.status = Status.rejected;\r\n    }    \r\n    emit Funds(availableFunds);\r\n    emit ExecuteProposal(proposalId, proposal.status);\r\n  }\r\n\r\n  function withdrawEther(uint amount, address payable to) external onlyAdmin {    \r\n    require(availableFunds >= amount, 'not enough available funds');\r\n    availableFunds -= amount;\r\n    _transferEther(amount, to);\r\n    emit Funds(availableFunds);\r\n  }\r\n\r\n  function _transferEther(uint amount, address payable to) internal {    \r\n    to.transfer(amount);\r\n  }\r\n\r\n  function setAdmin(address payable _admin) external onlyAdmin {\r\n    admin = _admin;\r\n  }\r\n\r\n  // For ether returns of proposal investment\r\n  receive() external payable {\r\n    availableFunds += msg.value;\r\n    emit Funds(availableFunds);\r\n  }\r\n\r\n  modifier onlyInvestors() {\r\n    require(investors[msg.sender] == true, 'only investors');\r\n    _;\r\n  }\r\n\r\n  modifier onlyAdmin() {\r\n    require(msg.sender == admin, 'only admin');\r\n    _;\r\n  }\r\n}",
  "sourcePath": "D:\\GIT\\decentralized-autonomous-organization\\src\\contracts\\DAO.sol",
  "compiler": {
    "name": "solc",
    "version": "0.8.17+commit.8df45f5f.Emscripten.clang"
  },
  "schemaVersion": "3.4.10",
  "updatedAt": "2022-11-11T16:10:34.179Z",
  "networkType": "ethereum",
  "devdoc": {
    "kind": "dev",
    "methods": {},
    "version": 1
  },
  "userdoc": {
    "kind": "user",
    "methods": {},
    "version": 1
  }
}